:100000000C9434000C9451000C9451000C94510049
:100010000C9451000C9451000C9451000C9451001C
:100020000C9451000C9451000C9451000C9451000C
:100030000C9451000C9451000C9451000C945100FC
:100040000C9483000C9451000C9451000C945100BA
:100050000C9451000C9451000C9451000C945100DC
:100060000C9451000C94510011241FBECFEFD8E026
:10007000DEBFCDBF11E0A0E0B1E0ECE7F2E002C0EE
:1000800005900D92AA30B107D9F721E0AAE0B1E0BE
:1000900001C01D92A431B207E1F70E94CD000C947B
:1000A0003C010C940000CF93DF9300D0CDB7DEB7B6
:1000B00025E130E02150310971F01A8219828981DD
:1000C0009A8180349F41B0F7000089819A8101961E
:1000D0009A838983F4CF0F900F90DF91CF91089589
:1000E0008A3080F4E82FF0E0E050FF4F908188B133
:1000F000807C292F2F73822B88B996FF02C05F9ACC
:1001000008955F9808951F920F920FB60F921124D1
:100110002F933F938F939F93AF93BF938091100141
:1001200090911101A0911201B091130130910F0132
:1001300023E0230F2D3758F50196A11DB11D209303
:100140000F018093100190931101A0931201B093BD
:10015000130180910B0190910C01A0910D01B091C0
:100160000E010196A11DB11D80930B0190930C010E
:10017000A0930D01B0930E01BF91AF919F918F910C
:100180003F912F910F900FBE0F901F90189526E86A
:10019000230F0296A11DB11DD2CF789484B5826041
:1001A00084BD84B5816084BD85B5826085BD85B51B
:1001B000816085BD80916E00816080936E00109299
:1001C0008100809181008260809381008091810014
:1001D00081608093810080918000816080938000A5
:1001E0008091B10084608093B1008091B000816003
:1001F0008093B00080917A00846080937A0080912F
:100200007A00826080937A0080917A008160809386
:100210007A0080917A00806880937A001092C10001
:1002200052985A9887B18F6387B988B1807C88B912
:10023000579A5F9880E00E947000C0E0D0E04A9B2F
:1002400013C00E9453004A9B0FC080910A018F5F28
:100250008A3078F480930A0180910A010E9470002C
:100260004A99FECF0E945300209749F30E94000054
:0C027000E6CF10920A01F0CFF894FFCF07
:0A027C003F065B4F666D7D077F6F44
:00000001FF
