:100000000C9434000C943E000C943E000C943E0082
:100010000C943E000C943E000C943E000C943E0068
:100020000C943E000C943E000C943E000C943E0058
:100030000C943E000C943E000C943E000C943E0048
:100040000C943E000C943E000C943E000C943E0038
:100050000C943E000C943E000C943E000C943E0028
:100060000C943E000C943E0011241FBECFEFD8E04C
:10007000DEBFCDBF0E9440000C9464000C940000D1
:1000800080E480937C0087E880937A00219A81E85D
:10009000809380008BE08093810080917A0080645F
:1000A00080937A0080917A0086FDFCCF9091780051
:1000B0008091790089279827892796958795969525
:0C00C000879580938800E9CFF894FFCF6B
:00000001FF
